:100000000C9438010C9469010C9469010C946901F9
:100010000C9469010C9469010C9469010C946901B8
:100020000C9469010C9469010C9469010C946901A8
:100030000C9469010C9469010C9469010C94690198
:100040000C9469010C9469010C9469010C94690188
:100050000C9469010C9469010C9469010C94F003EF
:100060000C9469010C9464040C943A040C94690196
:100070000C9469010C9469010C9469010C94690158
:100080000C9469010C9469010C9469010C94690148
:100090000C9469010C9469010C9469010C94690138
:1000A0000C9469010C9469010C9469010C94690128
:1000B0000C9469010C9469010C9469010C94690118
:1000C0000C9469010C9469010C9469010C94690108
:1000D0000C9469010C9469010C9469010C946901F8
:1000E0000C9469019A019D018C0190019401D40145
:1000F000A101A501AB01AF01B301B901BD01C1016E
:10010000D401C701CB01CF010C94C7010C944C0260
:100110000C9438020C949A010C9490010C949A045B
:100120000C94AF010C94AB010C9491020C94BD01A2
:100130000C94B9010C940D020C94D4010C948C0114
:100140000C945A020C94A1010C949D010C94D802B9
:100150000C94C1010C94CB010C94CF010C94A5011B
:100160000C94B3010C94940100002100240027009A
:100170002A002D00300033000101000004010701B6
:100180000A0100002200250028002B002E0031006B
:10019000340002010000050108010B0105050505F9
:1001A000070508080808020202020A0A08080404EF
:1001B000040401010101010101010303030303031D
:1001C0000303040707070C0C0C0C0C0C0C0C0202AC
:1001D000020206060606060606060B0B0B0B0B0BA9
:1001E0000B0B010210202008081020401020408036
:1001F00002010201080402010102040810204080EB
:100200008040201008040201800402018040201078
:1002100008040201080402010102040810204080C1
:10022000010204081020408000000A0B02090C0D96
:100230000E08070304010000000000000000000099
:1002400000000000000000000000000000000000AE
:10025000000000001211100000000000000000006B
:1002600000000000000000000000000000009A04F0
:1002700011241FBECFEFD1E2DEBFCDBF00E00CBF27
:1002800012E0A0E0B2E0E0E1FFE000E00BBF02C05E
:1002900007900D92A63BB107D9F724E0A6EBB2E098
:1002A00001C01D92A63CB207E1F711E0C8E3D1E01E
:1002B00000E006C021970109802FFE010E94380648
:1002C000C733D10780E00807A9F70E94DE040C9429
:1002D00086070C940000362F90E0FC01E85DFD4F8E
:1002E0004491FC01EE51FE4F2491FC01E456FE4F77
:1002F0009491992309F46BC0442309F455C050E04C
:10030000FA013197E231F10508F04EC08827EE5826
:10031000FF4F8F4F0C943806809180008F7707C075
:10032000809180008F7D03C080918000877F8093C3
:1003300080003AC084B58F7702C084B58F7D84BDBC
:1003400033C08091B0008F7703C08091B0008F7D63
:100350008093B00029C0809190008F7707C0809172
:1003600090008F7D03C080919000877F80939000E4
:100370001BC08091A0008F7707C08091A0008F7D67
:1003800003C08091A000877F8093A0000DC0809162
:1003900020018F7707C0809120018F7D03C080915D
:1003A0002001877F80932001E92FF0E0EE0FFF1FEF
:1003B000EE57FE4FA591B4918FB7F894EC9131119F
:1003C00003C020952E2301C02E2B2C938FBF0895A0
:1003D0003FB7F8948091BB029091BC02A091BD02FE
:1003E000B091BE0226B5A89B05C02F3F19F001961B
:1003F000A11DB11D3FBFBA2FA92F982F8827820FAB
:10040000911DA11DB11DBC01CD0142E0660F771FFA
:10041000881F991F4A95D1F70895CF92DF92EF92E6
:10042000FF920F931F93CF93DF936C017A018B019F
:10043000C0E0D0E0CE15DF0589F0D8016D918D01C7
:10044000D601ED91FC910190F081E02DC601199546
:10045000892B11F47E0102C02196ECCFC701DF91F8
:10046000CF911F910F91FF90EF90DF90CF90089563
:10047000FC01918D828D981761F0828DDF01A80FAC
:10048000B11D5D968C91928D9F5F9F73928F90E0CE
:1004900008958FEF9FEF0895FC01918D828D98173D
:1004A00031F0828DE80FF11D858D90E008958FEF7A
:1004B0009FEF0895FC01918D228D892F90E0805C43
:1004C0009F4F821B91098F73992708958FEB92E0BC
:1004D0000E945A0221E0892B09F420E0822F08951E
:1004E000FC01848DDF01A80FB11DA35ABF4F2C91D1
:1004F000848D90E001968F739927848FA689B789A0
:100500002C93A089B1898C9180648C93938D848D78
:10051000981306C00288F389E02D80818F7D808347
:100520000895EF92FF920F931F93CF93DF93EC0107
:1005300081E0888F9B8D8C8D981305C0E889F9899F
:10054000808185FD24C0F62E0B8D10E00F5F1F4FBC
:100550000F731127E02E8C8DE8120CC00FB607FC2C
:10056000FACFE889F989808185FFF5CFCE010E9415
:100570007002F1CF8B8DFE01E80FF11DE35AFF4FA2
:10058000F0820B8FEA89FB898081806207C0EE8947
:10059000FF896083E889F98980818064808381E0B4
:1005A00090E0DF91CF911F910F91FF90EF90089510
:1005B000CF93DF93EC01888D8823C9F0EA89FB890A
:1005C000808185FD05C0A889B9898C9186FD0FC001
:1005D0000FB607FCF5CF808185FFF2CFA889B989D6
:1005E0008C9185FFEDCFCE010E947002E7CFDF91A5
:1005F000CF91089580E090E0892B21F00E9466025F
:10060000811125C080E090E0892B41F080E090E0EE
:10061000892B21F00E94000081111CC080E090E035
:10062000892B41F080E090E0892B21F00E940000AE
:10063000811113C080E090E0892BA1F080E090E070
:10064000892B81F00E94000081110AC008950E9448
:100650000000D8CF0E940000E1CF0E940000EACF46
:100660000C94000008959F92AF92BF92CF92DF92B8
:10067000EF92FF920F931F93CF93DF935C018B0157
:1006800084E0000F111F8A95E1F7C0E0D0E065011A
:1006900080EAC80ED11C992493947501A1EAEA0E50
:1006A000F11CFE01E00FF11FEA0DFB1DD6012C919C
:1006B000292530E061E0808191818217930709F05C
:1006C00060E0D701ED91FC91EC0FFD1F80810E944D
:1006D0006B012296CE30D10521F7DF91CF911F918A
:1006E0000F91FF90EF90DF90CF90BF90AF909F90D1
:1006F0000895DF92EF92FF920F931F93CF93DF93B2
:10070000C0E0D0E08C0100561F4FDD24D3947C0163
:1007100021EAE20EF11CD8016C916D25D701ED9113
:10072000FC91EC0FFD1F80810E946B012296CE3060
:10073000D10589F7DF91CF911F910F91FF90EF9035
:10074000DF900895EF92FF920F931F93CF93DF9363
:10075000E12CF12C8C010F551F4FEC01C056DF4FDF
:10076000D801ED91FC91EE0DFF1D208131813327E1
:10077000F901EE51FE4F4491F901E456FE4F2491E8
:100780002223A1F030E0220F331FF901E859FE4F78
:10079000A591B491F901EE57FE4F859194918FB7D1
:1007A000F8949C91E92FE42BEC938FBFD801ED9145
:1007B000FC91EE0DFF1D688180810E946B01B2E00B
:1007C000EB0EF11C8EE0E816F10409F0C9CFDF91C1
:1007D000CF911F910F91FF90EF9008950E94810794
:1007E0001F920F920FB60F9211242F933F938F9366
:1007F0009F93AF93BF938091B7029091B802A0915D
:10080000B902B091BA023091B60223E0230F2D371E
:1008100020F40196A11DB11D05C026E8230F029604
:10082000A11DB11D2093B6028093B7029093B80228
:10083000A093B902B093BA028091BB029091BC021E
:10084000A091BD02B091BE020196A11DB11D809381
:10085000BB029093BC02A093BD02B093BE02BF91B5
:10086000AF919F918F913F912F910F900FBE0F905D
:100870001F9018951F920F920FB60F9211240BB66E
:100880000F922F933F934F935F936F937F938F9329
:100890009F93AF93BF93EF93FF938FEB92E00E94F0
:1008A0007002FF91EF91BF91AF919F918F917F91D6
:1008B0006F915F914F913F912F910F900BBE0F90D1
:1008C0000FBE0F901F9018951F920F920FB60F92A8
:1008D00011240BB60F922F938F939F93EF93FF9357
:1008E000E091CF02F091D0028081E091D502F091A9
:1008F000D60282FD12C090818091D8028F5F8F73E3
:100900002091D902821751F0E091D802F0E0E15431
:10091000FD4F958F8093D80201C08081FF91EF91A8
:100920009F918F912F910F900BBE0F900FBE0F9044
:100930001F901895EFEBF2E01382128288EE93E09D
:10094000A0E0B0E084839583A683B7838AEA92E02F
:100950009183808385EC90E09587848784EC90E098
:100960009787868780EC90E0918B808B81EC90E07C
:10097000938B828B82EC90E0958B848B86EC90E05D
:10098000978B868B118E128E138E148E80EAE6E082
:10099000F2E0AFE0B4E001900D928A95E1F781E0DA
:1009A0008093AF0490EAE6E0F2E0ACE5B3E00190BA
:1009B0000D929A95E1F78093FC030895789484B59D
:1009C000826084BD84B5816084BD85B5826085BD4B
:1009D00085B5816085BD80916E00816080936E00D9
:1009E00010928100809181008260809381008091CB
:1009F000810081608093810080918000816080937C
:100A000080008091B10084608093B1008091B0003B
:100A100081608093B000809191008260809391000A
:100A2000809191008160809391008091900081601D
:100A3000809390008091A10082608093A1008091BA
:100A4000A10081608093A1008091A00081608093CB
:100A5000A000809121018260809321018091210179
:100A60008160809321018091200181608093200129
:100A700080917A00846080937A0080917A0082600D
:100A800080937A0080917A00816080937A008091CF
:100A90007A00806880937A001092C100E091CF02C2
:100AA000F091D00282E08083E091CB02F091CC0201
:100AB0001082E091CD02F091CE028FEC80831092F3
:100AC000D702E091D302F091D40286E08083E091D6
:100AD000D102F091D202808180618083E091D102C5
:100AE000F091D202808188608083E091D102F09100
:100AF000D202808180688083E091D102F091D2029D
:100B000080818F7D808380E190E00E945406EC011B
:100B100083E290E09983888385E290E09B838A83D7
:100B20008BE190E09D838C8389E190E09F838E83AD
:100B300087E190E09987888781E290E09B878A87A8
:100B40008FE190E09D878C878DE190E09F878E8775
:100B500080E190E00E945406FC0182E290E09183E3
:100B6000808384E290E0938382838AE190E095839E
:100B7000848388E190E09783868386E190E0918783
:100B8000808780E290E0938782878EE190E095876E
:100B900084878CE190E097878687D093B104C093D7
:100BA000B004F093FE03E093FD038FE094E00E9415
:100BB000A2038FE094E00E9479038CE593E00E9409
:100BC000A2038CE593E00E9479030AE010E0C0E004
:100BD000D0E0CE01B8010E9424067C018FE094E0B1
:100BE0000E943303B7018CE593E00E9433030E9417
:100BF000E8014B015C0182E3C82ED12CE12CF12CE1
:100C00000E94E801DC01CB0188199909AA09BB09F6
:100C1000883E9340A105B10558F021E0C21AD108E1
:100C2000E108F10888EE880E83E0981EA11CB11C33
:100C3000C114D104E104F10419F72196C436D10599
:100C400041F60E94FA02C3CF97FB072E16F40094D8
:100C500007D077FD09D00E94400607FC05D03EF47E
:100C6000909581959F4F0895709561957F4F089558
:100C7000EE0FFF1F881F8BBF0790F691E02D199490
:100C8000AA1BBB1B51E107C0AA1FBB1FA617B707B2
:100C900010F0A61BB70B881F991F5A95A9F78095CE
:100CA0009095BC01CD010895CF93DF9382309105DB
:100CB00010F482E090E0E091C404F091C50420E0DB
:100CC00030E0C0E0D0E0309711F140815181481709
:100CD0005907C0F04817590761F482819381209722
:100CE00019F09B838A832BC09093C5048093C4041E
:100CF00026C02115310519F04217530718F49A013F
:100D0000BE01DF01EF010280F381E02DDCCF211570
:100D1000310509F1281B390B2430310590F4129666
:100D20008D919C9113976115710521F0FB019383BF
:100D3000828304C09093C5048093C404FD0132965D
:100D400044C0FD01E20FF31F8193919322503109BA
:100D50002D933C933AC02091C2043091C304232BBD
:100D600041F420910202309103023093C304209396
:100D7000C20420910002309101022115310541F495
:100D80002DB73EB74091040250910502241B350B4C
:100D9000E091C204F091C304E217F307A0F42E1B04
:100DA0003F0B2817390778F0AC014E5F5F4F2417CF
:100DB000350748F04E0F5F1F5093C3044093C204A1
:100DC0008193919302C0E0E0F0E0CF01DF91CF91F9
:100DD00008950F931F93CF93DF93009709F48CC06E
:100DE000FC013297138212820091C4041091C50451
:100DF0000115110581F420813181820F931F20910B
:100E0000C2043091C3042817390779F5F093C3045D
:100E1000E093C20471C0D80140E050E0AE17BF07B4
:100E200050F412962D913C911397AD012115310587
:100E300009F1D901F3CF9D01DA0133832283608167
:100E40007181860F971F8217930769F4EC0128813F
:100E50003981260F371F2E5F3F4F318320838A81D0
:100E60009B8193838283452B29F4F093C504E093FF
:100E7000C40442C01396FC93EE931297ED0149917E
:100E800059919E01240F351FE217F30771F48081F9
:100E90009181840F951F029611969C938E93828167
:100EA000938113969C938E931297E0E0F0E0D80123
:100EB00012968D919C911397009719F0F8018C016F
:100EC000F6CF8D919C9198012E5F3F4F820F931F1B
:100ED0002091C2043091C3042817390769F4309770
:100EE00029F41092C5041092C40402C01382128225
:100EF0001093C3040093C204DF91CF911F910F910F
:100F0000089581E090E0F8940C948607F894FFCF60
:100F10000000C60480000100010001000100010082
:100F200001000000000000000100010000000000BE
:100F300000000000000001000100000001000100AD
:100F4000000001000000010001000100010000009C
:100F5000000001000000000001000100000000008E
:100F6000010001000000010000000100010000007C
:100F7000010001000000010000000100010001006B
:100F8000010001000000010001000100000000005C
:100F9000000000000000010001000100010001004C
:100FA000010001000000010001000100000000003C
:100FB0000100010000000000000091020D025A0231
:060FC00038024C02D802C9
:00000001FF
